:100000000C9435000C945D000C945D000C945D0024
:100010000C945D000C945D000C945D000C945D00EC
:100020000C945D000C945D000C945D000C945D00DC
:100030000C945D000C945D000C945D000C945D00CC
:100040000C94E2010C945D000C9452020C942C026E
:100050000C945D000C945D000C945D000C945D00AC
:100060000C945D000C945D00840211241FBECFEF40
:10007000D8E0DEBFCDBF11E0A0E0B1E0E4EBF8E0F6
:1000800002C005900D92A033B107D9F722E0A0E39A
:10009000B1E001C01D92A134B207E1F710E0C5E361
:1000A000D0E004C02197FE010E945204C433D1075E
:1000B000C9F70E94BF020C9458040C9400003FB78B
:1000C000F8948091350190913601A0913701B0915B
:1000D000380126B5A89B05C02F3F19F00196A11D38
:1000E000B11D3FBFBA2FA92F982F8827BC01CD0182
:1000F000620F711D811D911D42E0660F771F881FE1
:10010000991F4A95D1F70895AF92BF92CF92DF928F
:10011000EF92FF920F931F93CF93DF936C017B01BC
:100120008B01040F151FEB015E01AE18BF08C0174D
:10013000D10759F06991D601ED91FC910190F081C0
:10014000E02DC6010995892B79F7C501DF91CF9183
:100150001F910F91FF90EF90DF90CF90BF90AF90E5
:100160000895FC01538D448D252F30E0842F90E0BD
:10017000821B930B541710F0CF96089501970895A2
:10018000FC01918D828D981761F0A28DAE0FBF2F6B
:10019000B11D5D968C91928D9F5F9F73928F90E0C1
:1001A00008958FEF9FEF0895FC01918D828D981730
:1001B00031F0828DE80FF11D858D90E008958FEF6D
:1001C0009FEF0895FC01918D228D892F90E0805C36
:1001D0009F4F821B91098F739927089589E391E0BE
:1001E0000E94E20021E0892B09F420E0822F08958B
:1001F00080E090E0892B29F00E94EE0081110C94A0
:1002000000000895FC01A48DA80FB92FB11DA35AB9
:10021000BF4F2C91848D90E001968F739927848F26
:10022000A689B7892C93A089B1898C918370806449
:100230008C93938D848D981306C00288F389E02DEA
:1002400080818F7D80830895EF92FF920F931F939B
:10025000CF93DF93EC0181E0888F9B8D8C8D981379
:100260001AC0E889F989808185FF15C09FB7F89485
:10027000EE89FF896083E889F989808183708064D1
:1002800080839FBF81E090E0DF91CF911F910F911C
:10029000FF90EF900895F62E0B8D10E00F5F1F4F2B
:1002A0000F731127E02E8C8D8E110CC00FB607FC3A
:1002B000FACFE889F989808185FFF5CFCE010E94C8
:1002C0000201F1CFEB8DEC0FFD2FF11DE35AFF4F33
:1002D000F0829FB7F8940B8FEA89FB898081806256
:1002E000CFCFCF93DF93EC01888D8823B9F0AA8913
:1002F000BB89E889F9898C9185FD03C0808186FDE1
:100300000DC00FB607FCF7CF8C9185FFF2CF80812F
:1003100085FFEDCFCE010E940201E9CFDF91CF91A1
:100320000895FC0101900020E9F73197AF01481BC7
:10033000590BBC0189E391E00C9484008F929F9249
:10034000AF92BF920F931F93CF93DF93CDB7DEB7DA
:10035000A1970FB6F894DEBF0FBECDBF19A24230F1
:1003600008F44AE08E010F5D1F4F842E912CB12CB2
:10037000A12CA50194010E943004E62FB901CA0105
:10038000EA30F4F4E05DD801EE938D01232B242BA9
:10039000252B79F790E080E0109719F0CD010E94AD
:1003A0009101A1960FB6F894DEBF0FBECDBFDF91CD
:1003B000CF911F910F91BF90AF909F908F90089514
:1003C000E95CE1CF1F920F920FB60F9211242F9389
:1003D0003F938F939F93AF93BF93809131019091FF
:1003E0003201A0913301B09134013091300123E00A
:1003F000230F2D3758F50196A11DB11D2093300113
:100400008093310190933201A0933301B093340172
:100410008091350190913601A0913701B09138015A
:100420000196A11DB11D8093350190933601A093D3
:100430003701B0933801BF91AF919F918F913F9158
:100440002F910F900FBE0F901F90189526E8230F45
:100450000296A11DB11DD2CF1F920F920FB60F921F
:1004600011242F933F934F935F936F937F938F93B9
:100470009F93AF93BF93EF93FF9389E391E00E9423
:100480000201FF91EF91BF91AF919F918F917F9169
:100490006F915F914F913F912F910F900FBE0F90F1
:1004A0001F9018951F920F920FB60F9211242F9341
:1004B0008F939F93EF93FF93E0914901F0914A014D
:1004C0008081E0914F01F091500182FD1BC090812D
:1004D000809152018F5F8F7320915301821741F0F9
:1004E000E0915201F0E0E75CFE4F958F809352015E
:1004F000FF91EF919F918F912F910F900FBE0F90D1
:100500001F9018958081F4CFE9E3F1E01382128205
:1005100088EE93E0A0E0B0E084839583A683B78360
:1005200084E091E09183808385EC90E095878487D7
:1005300084EC90E09787868780EC90E0918B808BAD
:1005400081EC90E0938B828B82EC90E0958B848B96
:1005500086EC90E0978B868B118E128E138E148E04
:1005600010923B0210923A0210923C0210923D020D
:1005700010923E0210923F02109240020895789429
:1005800084B5826084BD84B5816084BD85B5826098
:1005900085BD85B5816085BD80916E008160809349
:1005A0006E001092810080918100826080938100B2
:1005B00080918100816080938100809180008160C2
:1005C000809380008091B10084608093B10080911D
:1005D000B00081608093B00080917A008460809345
:1005E0007A0080917A00826080937A0080917A000C
:1005F000816080937A0080917A00806880937A008D
:100600001092C100E0914901F0914A0182E080839B
:10061000E0914501F09146011082E0914701F0918F
:1006200048018FEC808310925101E0914D01F091CF
:100630004E0186E08083E0914B01F0914C01808176
:1006400080618083E0914B01F0914C018081886052
:100650008083E0914B01F0914C0180818068808320
:10066000E0914B01F0914C0180818F7D8083C0909F
:100670003C02D0903D02E0903E02F0903F0220917B
:100680003A0230913B0240914002C2E3D0E002E3E3
:1006900010E0F901EE0FFF1FEA52FE4F80819181B9
:1006A000C81AD90AE108F10811821082C90101961D
:1006B000B8010E941C049C01009709F441E02197B5
:1006C00041F780933A0290933B02C0923C02D09251
:1006D0003D02E0923E02F0923F024093400282E1EE
:1006E00091E00E9491018CE291E00E94910150E41E
:1006F000B52EC2E3D0E000E010E0AA24A394B092AB
:100700007C0080917A00806480937A0080917A00E6
:1007100086FDFCCF209178003091790080913A02DB
:1007200090913B02C0903C02D0903D02E0903E028E
:10073000F0903F02C20ED31EE11CF11CFC01EE0F33
:10074000FF1FEA52FE4F40815181C41AD50AE108C9
:10075000F108C0923C02D0923D02E0923E02F0923B
:100760003F02318320830196BE010E941C049093B6
:100770003B0280933A02009711F4A092400220912C
:100780004002222311F082E390E09C0150E040E01F
:10079000C701B6010E94300469017A012FB7F894AD
:1007A0006091310170913201809133019091340157
:1007B0002FBF4AE00E949E016CE289E391E00E9413
:1007C0002401C701B601882799274AE00E949E01AB
:1007D0008CE291E00E9491010E945F002B013C019C
:1007E0008FE0C82ED12CE12CF12C0E945F006419FF
:1007F000750986099709683E734081059105A8F33C
:1008000021E0C21AD108E108F10888EE480E83E021
:10081000581E611C711CC114D104E104F10429F7B4
:100820000115110509F46BCF0E94EE00882309F42D
:1008300066CF0E94000063CFAA1BBB1B51E107C01B
:10084000AA1FBB1FA617B70710F0A61BB70B881F60
:10085000991F5A95A9F780959095BC01CD010895EF
:10086000A1E21A2EAA1BBB1BFD010DC0AA1FBB1FB4
:10087000EE1FFF1FA217B307E407F50720F0A21B26
:10088000B30BE40BF50B661F771F881F991F1A9493
:1008900069F760957095809590959B01AC01BD01BD
:1008A000CF010895EE0FFF1F0590F491E02D0994FC
:0408B000F894FFCFEA
:1008B4000000000024018400B1007101E200C000C6
:1008C400D40054696D657374616D705F6D732C53DE
:1008D400656E736F725F56616C7565000D0A00007A
:00000001FF
